{
  "contractName": "Voting",
  "abi": [
    {
      "anonymous": false,
      "inputs": [
        {
          "indexed": true,
          "internalType": "address",
          "name": "previousOwner",
          "type": "address"
        },
        {
          "indexed": true,
          "internalType": "address",
          "name": "newOwner",
          "type": "address"
        }
      ],
      "name": "OwnershipTransferred",
      "type": "event"
    },
    {
      "anonymous": false,
      "inputs": [
        {
          "indexed": false,
          "internalType": "uint256",
          "name": "_proposalId",
          "type": "uint256"
        }
      ],
      "name": "ProposalRegistered",
      "type": "event"
    },
    {
      "anonymous": false,
      "inputs": [
        {
          "indexed": false,
          "internalType": "address",
          "name": "_voter",
          "type": "address"
        },
        {
          "indexed": false,
          "internalType": "uint256",
          "name": "_proposalId",
          "type": "uint256"
        }
      ],
      "name": "Voted",
      "type": "event"
    },
    {
      "anonymous": false,
      "inputs": [
        {
          "indexed": false,
          "internalType": "address",
          "name": "_voterAddress",
          "type": "address"
        }
      ],
      "name": "VoterRegistered",
      "type": "event"
    },
    {
      "anonymous": false,
      "inputs": [
        {
          "indexed": false,
          "internalType": "enum Voting.WorkflowStatus",
          "name": "_previousStatus",
          "type": "uint8"
        },
        {
          "indexed": false,
          "internalType": "enum Voting.WorkflowStatus",
          "name": "_newStatus",
          "type": "uint8"
        }
      ],
      "name": "WorkflowStatusChange",
      "type": "event"
    },
    {
      "inputs": [],
      "name": "owner",
      "outputs": [
        {
          "internalType": "address",
          "name": "",
          "type": "address"
        }
      ],
      "stateMutability": "view",
      "type": "function",
      "constant": true
    },
    {
      "inputs": [],
      "name": "renounceOwnership",
      "outputs": [],
      "stateMutability": "nonpayable",
      "type": "function"
    },
    {
      "inputs": [
        {
          "internalType": "address",
          "name": "newOwner",
          "type": "address"
        }
      ],
      "name": "transferOwnership",
      "outputs": [],
      "stateMutability": "nonpayable",
      "type": "function"
    },
    {
      "inputs": [],
      "name": "winningProposalID",
      "outputs": [
        {
          "internalType": "uint256",
          "name": "",
          "type": "uint256"
        }
      ],
      "stateMutability": "view",
      "type": "function",
      "constant": true
    },
    {
      "inputs": [],
      "name": "workflowStatus",
      "outputs": [
        {
          "internalType": "enum Voting.WorkflowStatus",
          "name": "",
          "type": "uint8"
        }
      ],
      "stateMutability": "view",
      "type": "function",
      "constant": true
    },
    {
      "inputs": [
        {
          "internalType": "address",
          "name": "_addr",
          "type": "address"
        }
      ],
      "name": "getVoter",
      "outputs": [
        {
          "components": [
            {
              "internalType": "bool",
              "name": "isRegistered",
              "type": "bool"
            },
            {
              "internalType": "bool",
              "name": "hasVoted",
              "type": "bool"
            },
            {
              "internalType": "uint256",
              "name": "votedProposalId",
              "type": "uint256"
            }
          ],
          "internalType": "struct Voting.Voter",
          "name": "",
          "type": "tuple"
        }
      ],
      "stateMutability": "view",
      "type": "function",
      "constant": true
    },
    {
      "inputs": [
        {
          "internalType": "uint256",
          "name": "_id",
          "type": "uint256"
        }
      ],
      "name": "getOneProposal",
      "outputs": [
        {
          "components": [
            {
              "internalType": "string",
              "name": "description",
              "type": "string"
            },
            {
              "internalType": "uint256",
              "name": "voteCount",
              "type": "uint256"
            }
          ],
          "internalType": "struct Voting.Proposal",
          "name": "",
          "type": "tuple"
        }
      ],
      "stateMutability": "view",
      "type": "function",
      "constant": true
    },
    {
      "inputs": [],
      "name": "getWinner",
      "outputs": [
        {
          "components": [
            {
              "internalType": "string",
              "name": "description",
              "type": "string"
            },
            {
              "internalType": "uint256",
              "name": "voteCount",
              "type": "uint256"
            }
          ],
          "internalType": "struct Voting.Proposal",
          "name": "",
          "type": "tuple"
        }
      ],
      "stateMutability": "view",
      "type": "function",
      "constant": true
    },
    {
      "inputs": [
        {
          "internalType": "address",
          "name": "_addr",
          "type": "address"
        }
      ],
      "name": "addVoter",
      "outputs": [],
      "stateMutability": "nonpayable",
      "type": "function"
    },
    {
      "inputs": [
        {
          "internalType": "string",
          "name": "_desc",
          "type": "string"
        }
      ],
      "name": "addProposal",
      "outputs": [],
      "stateMutability": "nonpayable",
      "type": "function"
    },
    {
      "inputs": [
        {
          "internalType": "uint256",
          "name": "_id",
          "type": "uint256"
        }
      ],
      "name": "setVote",
      "outputs": [],
      "stateMutability": "nonpayable",
      "type": "function"
    },
    {
      "inputs": [],
      "name": "startProposalsRegistering",
      "outputs": [],
      "stateMutability": "nonpayable",
      "type": "function"
    },
    {
      "inputs": [],
      "name": "endProposalsRegistering",
      "outputs": [],
      "stateMutability": "nonpayable",
      "type": "function"
    },
    {
      "inputs": [],
      "name": "startVotingSession",
      "outputs": [],
      "stateMutability": "nonpayable",
      "type": "function"
    },
    {
      "inputs": [],
      "name": "endVotingSession",
      "outputs": [],
      "stateMutability": "nonpayable",
      "type": "function"
    },
    {
      "inputs": [],
      "name": "tallyVotes",
      "outputs": [],
      "stateMutability": "nonpayable",
      "type": "function"
    }
  ],
  "bytecode": "0x60806040523480156200001157600080fd5b5062000032620000266200003860201b60201c565b6200004060201b60201c565b62000104565b600033905090565b60008060009054906101000a900473ffffffffffffffffffffffffffffffffffffffff169050816000806101000a81548173ffffffffffffffffffffffffffffffffffffffff021916908373ffffffffffffffffffffffffffffffffffffffff1602179055508173ffffffffffffffffffffffffffffffffffffffff168173ffffffffffffffffffffffffffffffffffffffff167f8be0079c531659141344cd1fd0a4f28419497f9722a3daafe3b4186f6b6457e060405160405180910390a35050565b6126c580620001146000396000f3fe608060405234801561001057600080fd5b50600436106101005760003560e01c8063a7bfab1611610097578063d4f50f9811610066578063d4f50f9814610217578063ee74c67814610247578063f2fde38b14610251578063f4ab9adf1461026d57610100565b8063a7bfab16146101db578063bdc01431146101e5578063c7038a4e14610203578063c88af42f1461020d57610100565b80638da5cb5b116100d35780638da5cb5b146101515780638e7ea5b21461016f578063a1edffa21461018d578063a2788cce146101ab57610100565b8063230796ae146101055780632fdae3c514610121578063378a21781461013d578063715018a614610147575b600080fd5b61011f600480360381019061011a9190611832565b610289565b005b61013b600480360381019061013691906119a5565b610584565b005b6101456107c7565b005b61014f6109a8565b005b610159610a30565b6040516101669190611a2f565b60405180910390f35b610177610a59565b6040516101849190611b1e565b60405180910390f35b610195610ba6565b6040516101a29190611bb7565b60405180910390f35b6101c560048036038101906101c09190611832565b610bb9565b6040516101d29190611b1e565b60405180910390f35b6101e3610c91565b005b6101ed610deb565b6040516101fa9190611be1565b60405180910390f35b61020b610df1565b005b610215610f4b565b005b610231600480360381019061022c9190611c28565b6110a4565b60405161023e9190611cb2565b60405180910390f35b61024f6111cc565b005b61026b60048036038101906102669190611c28565b611326565b005b61028760048036038101906102829190611c28565b61141d565b005b600460003373ffffffffffffffffffffffffffffffffffffffff1673ffffffffffffffffffffffffffffffffffffffff16815260200190815260200160002060000160009054906101000a900460ff16610318576040517f08c379a000000000000000000000000000000000000000000000000000000000815260040161030f90611d2a565b60405180910390fd5b6003600581111561032c5761032b611b40565b5b600260009054906101000a900460ff16600581111561034e5761034d611b40565b5b1461038e576040517f08c379a000000000000000000000000000000000000000000000000000000000815260040161038590611dbc565b60405180910390fd5b60011515600460003373ffffffffffffffffffffffffffffffffffffffff1673ffffffffffffffffffffffffffffffffffffffff16815260200190815260200160002060000160019054906101000a900460ff16151503610424576040517f08c379a000000000000000000000000000000000000000000000000000000000815260040161041b90611e28565b60405180910390fd5b600380549050811061046b576040517f08c379a000000000000000000000000000000000000000000000000000000000815260040161046290611e94565b60405180910390fd5b80600460003373ffffffffffffffffffffffffffffffffffffffff1673ffffffffffffffffffffffffffffffffffffffff168152602001908152602001600020600101819055506001600460003373ffffffffffffffffffffffffffffffffffffffff1673ffffffffffffffffffffffffffffffffffffffff16815260200190815260200160002060000160016101000a81548160ff0219169083151502179055506003818154811061052157610520611eb4565b5b9060005260206000209060020201600101600081548092919061054390611f12565b91905055507f4d99b957a2bc29a30ebd96a7be8e68fe50a3c701db28a91436490b7d53870ca43382604051610579929190611f5a565b60405180910390a150565b600460003373ffffffffffffffffffffffffffffffffffffffff1673ffffffffffffffffffffffffffffffffffffffff16815260200190815260200160002060000160009054906101000a900460ff16610613576040517f08c379a000000000000000000000000000000000000000000000000000000000815260040161060a90611d2a565b60405180910390fd5b6001600581111561062757610626611b40565b5b600260009054906101000a900460ff16600581111561064957610648611b40565b5b14610689576040517f08c379a000000000000000000000000000000000000000000000000000000000815260040161068090611fcf565b60405180910390fd5b60405160200161069890612015565b60405160208183030381529060405280519060200120816040516020016106bf919061206e565b6040516020818303038152906040528051906020012003610715576040517f08c379a000000000000000000000000000000000000000000000000000000000815260040161070c90612102565b60405180910390fd5b61071d611706565b8181600001819052506003819080600181540180825580915050600190039060005260206000209060020201600090919091909150600082015181600001908051906020019061076e929190611720565b506020820151816001015550507f92e393e9b54e2f801d3ea4beb0c5e71a21cc34a5d34b77d0fb8a3aa1650dc18f60016003805490506107ae9190612122565b6040516107bb9190611be1565b60405180910390a15050565b6107cf61163a565b73ffffffffffffffffffffffffffffffffffffffff166107ed610a30565b73ffffffffffffffffffffffffffffffffffffffff1614610843576040517f08c379a000000000000000000000000000000000000000000000000000000000815260040161083a906121a2565b60405180910390fd5b6004600581111561085757610856611b40565b5b600260009054906101000a900460ff16600581111561087957610878611b40565b5b146108b9576040517f08c379a00000000000000000000000000000000000000000000000000000000081526004016108b090612234565b60405180910390fd5b600080600090505b60038054905081101561093757600382815481106108e2576108e1611eb4565b5b9060005260206000209060020201600101546003828154811061090857610907611eb4565b5b9060005260206000209060020201600101541115610924578091505b808061092f90611f12565b9150506108c1565b50806001819055506005600260006101000a81548160ff0219169083600581111561096557610964611b40565b5b02179055507f0a97a4ee45751e2abf3e4fc8946939630b11b371ea8ae39ccdc3056e98f5cc3f6004600560405161099d929190612254565b60405180910390a150565b6109b061163a565b73ffffffffffffffffffffffffffffffffffffffff166109ce610a30565b73ffffffffffffffffffffffffffffffffffffffff1614610a24576040517f08c379a0000000000000000000000000000000000000000000000000000000008152600401610a1b906121a2565b60405180910390fd5b610a2e6000611642565b565b60008060009054906101000a900473ffffffffffffffffffffffffffffffffffffffff16905090565b610a61611706565b600580811115610a7457610a73611b40565b5b600260009054906101000a900460ff166005811115610a9657610a95611b40565b5b14610ad6576040517f08c379a0000000000000000000000000000000000000000000000000000000008152600401610acd906122c9565b60405180910390fd5b600360015481548110610aec57610aeb611eb4565b5b9060005260206000209060020201604051806040016040529081600082018054610b1590612318565b80601f0160208091040260200160405190810160405280929190818152602001828054610b4190612318565b8015610b8e5780601f10610b6357610100808354040283529160200191610b8e565b820191906000526020600020905b815481529060010190602001808311610b7157829003601f168201915b50505050508152602001600182015481525050905090565b600260009054906101000a900460ff1681565b610bc1611706565b60038281548110610bd557610bd4611eb4565b5b9060005260206000209060020201604051806040016040529081600082018054610bfe90612318565b80601f0160208091040260200160405190810160405280929190818152602001828054610c2a90612318565b8015610c775780601f10610c4c57610100808354040283529160200191610c77565b820191906000526020600020905b815481529060010190602001808311610c5a57829003601f168201915b505050505081526020016001820154815250509050919050565b610c9961163a565b73ffffffffffffffffffffffffffffffffffffffff16610cb7610a30565b73ffffffffffffffffffffffffffffffffffffffff1614610d0d576040517f08c379a0000000000000000000000000000000000000000000000000000000008152600401610d04906121a2565b60405180910390fd5b60036005811115610d2157610d20611b40565b5b600260009054906101000a900460ff166005811115610d4357610d42611b40565b5b14610d83576040517f08c379a0000000000000000000000000000000000000000000000000000000008152600401610d7a90611dbc565b60405180910390fd5b6004600260006101000a81548160ff02191690836005811115610da957610da8611b40565b5b02179055507f0a97a4ee45751e2abf3e4fc8946939630b11b371ea8ae39ccdc3056e98f5cc3f60036004604051610de1929190612254565b60405180910390a1565b60015481565b610df961163a565b73ffffffffffffffffffffffffffffffffffffffff16610e17610a30565b73ffffffffffffffffffffffffffffffffffffffff1614610e6d576040517f08c379a0000000000000000000000000000000000000000000000000000000008152600401610e64906121a2565b60405180910390fd5b60006005811115610e8157610e80611b40565b5b600260009054906101000a900460ff166005811115610ea357610ea2611b40565b5b14610ee3576040517f08c379a0000000000000000000000000000000000000000000000000000000008152600401610eda906123bb565b60405180910390fd5b6001600260006101000a81548160ff02191690836005811115610f0957610f08611b40565b5b02179055507f0a97a4ee45751e2abf3e4fc8946939630b11b371ea8ae39ccdc3056e98f5cc3f60006001604051610f41929190612254565b60405180910390a1565b610f5361163a565b73ffffffffffffffffffffffffffffffffffffffff16610f71610a30565b73ffffffffffffffffffffffffffffffffffffffff1614610fc7576040517f08c379a0000000000000000000000000000000000000000000000000000000008152600401610fbe906121a2565b60405180910390fd5b60016005811115610fdb57610fda611b40565b5b600260009054906101000a900460ff166005811115610ffd57610ffc611b40565b5b1461103d576040517f08c379a00000000000000000000000000000000000000000000000000000000081526004016110349061244d565b60405180910390fd5b60028060006101000a81548160ff0219169083600581111561106257611061611b40565b5b02179055507f0a97a4ee45751e2abf3e4fc8946939630b11b371ea8ae39ccdc3056e98f5cc3f6001600260405161109a929190612254565b60405180910390a1565b6110ac6117a6565b600460003373ffffffffffffffffffffffffffffffffffffffff1673ffffffffffffffffffffffffffffffffffffffff16815260200190815260200160002060000160009054906101000a900460ff1661113b576040517f08c379a000000000000000000000000000000000000000000000000000000000815260040161113290611d2a565b60405180910390fd5b600460008373ffffffffffffffffffffffffffffffffffffffff1673ffffffffffffffffffffffffffffffffffffffff1681526020019081526020016000206040518060600160405290816000820160009054906101000a900460ff161515151581526020016000820160019054906101000a900460ff161515151581526020016001820154815250509050919050565b6111d461163a565b73ffffffffffffffffffffffffffffffffffffffff166111f2610a30565b73ffffffffffffffffffffffffffffffffffffffff1614611248576040517f08c379a000000000000000000000000000000000000000000000000000000000815260040161123f906121a2565b60405180910390fd5b6002600581111561125c5761125b611b40565b5b600260009054906101000a900460ff16600581111561127e5761127d611b40565b5b146112be576040517f08c379a00000000000000000000000000000000000000000000000000000000081526004016112b5906124df565b60405180910390fd5b6003600260006101000a81548160ff021916908360058111156112e4576112e3611b40565b5b02179055507f0a97a4ee45751e2abf3e4fc8946939630b11b371ea8ae39ccdc3056e98f5cc3f6002600360405161131c929190612254565b60405180910390a1565b61132e61163a565b73ffffffffffffffffffffffffffffffffffffffff1661134c610a30565b73ffffffffffffffffffffffffffffffffffffffff16146113a2576040517f08c379a0000000000000000000000000000000000000000000000000000000008152600401611399906121a2565b60405180910390fd5b600073ffffffffffffffffffffffffffffffffffffffff168173ffffffffffffffffffffffffffffffffffffffff1603611411576040517f08c379a000000000000000000000000000000000000000000000000000000000815260040161140890612571565b60405180910390fd5b61141a81611642565b50565b61142561163a565b73ffffffffffffffffffffffffffffffffffffffff16611443610a30565b73ffffffffffffffffffffffffffffffffffffffff1614611499576040517f08c379a0000000000000000000000000000000000000000000000000000000008152600401611490906121a2565b60405180910390fd5b600060058111156114ad576114ac611b40565b5b600260009054906101000a900460ff1660058111156114cf576114ce611b40565b5b1461150f576040517f08c379a000000000000000000000000000000000000000000000000000000000815260040161150690612603565b60405180910390fd5b60011515600460008373ffffffffffffffffffffffffffffffffffffffff1673ffffffffffffffffffffffffffffffffffffffff16815260200190815260200160002060000160009054906101000a900460ff161515036115a5576040517f08c379a000000000000000000000000000000000000000000000000000000000815260040161159c9061266f565b60405180910390fd5b6001600460008373ffffffffffffffffffffffffffffffffffffffff1673ffffffffffffffffffffffffffffffffffffffff16815260200190815260200160002060000160006101000a81548160ff0219169083151502179055507fb6be2187d059cc2a55fe29e0e503b566e1e0f8c8780096e185429350acffd3dd8160405161162f9190611a2f565b60405180910390a150565b600033905090565b60008060009054906101000a900473ffffffffffffffffffffffffffffffffffffffff169050816000806101000a81548173ffffffffffffffffffffffffffffffffffffffff021916908373ffffffffffffffffffffffffffffffffffffffff1602179055508173ffffffffffffffffffffffffffffffffffffffff168173ffffffffffffffffffffffffffffffffffffffff167f8be0079c531659141344cd1fd0a4f28419497f9722a3daafe3b4186f6b6457e060405160405180910390a35050565b604051806040016040528060608152602001600081525090565b82805461172c90612318565b90600052602060002090601f01602090048101928261174e5760008555611795565b82601f1061176757805160ff1916838001178555611795565b82800160010185558215611795579182015b82811115611794578251825591602001919060010190611779565b5b5090506117a291906117cb565b5090565b6040518060600160405280600015158152602001600015158152602001600081525090565b5b808211156117e45760008160009055506001016117cc565b5090565b6000604051905090565b600080fd5b600080fd5b6000819050919050565b61180f816117fc565b811461181a57600080fd5b50565b60008135905061182c81611806565b92915050565b600060208284031215611848576118476117f2565b5b60006118568482850161181d565b91505092915050565b600080fd5b600080fd5b6000601f19601f8301169050919050565b7f4e487b7100000000000000000000000000000000000000000000000000000000600052604160045260246000fd5b6118b282611869565b810181811067ffffffffffffffff821117156118d1576118d061187a565b5b80604052505050565b60006118e46117e8565b90506118f082826118a9565b919050565b600067ffffffffffffffff8211156119105761190f61187a565b5b61191982611869565b9050602081019050919050565b82818337600083830152505050565b6000611948611943846118f5565b6118da565b90508281526020810184848401111561196457611963611864565b5b61196f848285611926565b509392505050565b600082601f83011261198c5761198b61185f565b5b813561199c848260208601611935565b91505092915050565b6000602082840312156119bb576119ba6117f2565b5b600082013567ffffffffffffffff8111156119d9576119d86117f7565b5b6119e584828501611977565b91505092915050565b600073ffffffffffffffffffffffffffffffffffffffff82169050919050565b6000611a19826119ee565b9050919050565b611a2981611a0e565b82525050565b6000602082019050611a446000830184611a20565b92915050565b600081519050919050565b600082825260208201905092915050565b60005b83811015611a84578082015181840152602081019050611a69565b83811115611a93576000848401525b50505050565b6000611aa482611a4a565b611aae8185611a55565b9350611abe818560208601611a66565b611ac781611869565b840191505092915050565b611adb816117fc565b82525050565b60006040830160008301518482036000860152611afe8282611a99565b9150506020830151611b136020860182611ad2565b508091505092915050565b60006020820190508181036000830152611b388184611ae1565b905092915050565b7f4e487b7100000000000000000000000000000000000000000000000000000000600052602160045260246000fd5b60068110611b8057611b7f611b40565b5b50565b6000819050611b9182611b6f565b919050565b6000611ba182611b83565b9050919050565b611bb181611b96565b82525050565b6000602082019050611bcc6000830184611ba8565b92915050565b611bdb816117fc565b82525050565b6000602082019050611bf66000830184611bd2565b92915050565b611c0581611a0e565b8114611c1057600080fd5b50565b600081359050611c2281611bfc565b92915050565b600060208284031215611c3e57611c3d6117f2565b5b6000611c4c84828501611c13565b91505092915050565b60008115159050919050565b611c6a81611c55565b82525050565b606082016000820151611c866000850182611c61565b506020820151611c996020850182611c61565b506040820151611cac6040850182611ad2565b50505050565b6000606082019050611cc76000830184611c70565b92915050565b600082825260208201905092915050565b7f596f75277265206e6f74206120766f7465722f6f776e65720000000000000000600082015250565b6000611d14601883611ccd565b9150611d1f82611cde565b602082019050919050565b60006020820190508181036000830152611d4381611d07565b9050919050565b7f566f74696e672073657373696f6e20686176656e74207374617274656420796560008201527f7400000000000000000000000000000000000000000000000000000000000000602082015250565b6000611da6602183611ccd565b9150611db182611d4a565b604082019050919050565b60006020820190508181036000830152611dd581611d99565b9050919050565b7f596f75206861766520616c726561647920766f74656400000000000000000000600082015250565b6000611e12601683611ccd565b9150611e1d82611ddc565b602082019050919050565b60006020820190508181036000830152611e4181611e05565b9050919050565b7f50726f706f73616c206e6f7420666f756e640000000000000000000000000000600082015250565b6000611e7e601283611ccd565b9150611e8982611e48565b602082019050919050565b60006020820190508181036000830152611ead81611e71565b9050919050565b7f4e487b7100000000000000000000000000000000000000000000000000000000600052603260045260246000fd5b7f4e487b7100000000000000000000000000000000000000000000000000000000600052601160045260246000fd5b6000611f1d826117fc565b91507fffffffffffffffffffffffffffffffffffffffffffffffffffffffffffffffff8203611f4f57611f4e611ee3565b5b600182019050919050565b6000604082019050611f6f6000830185611a20565b611f7c6020830184611bd2565b9392505050565b7f50726f706f73616c7320617265206e6f7420616c6c6f77656420796574000000600082015250565b6000611fb9601d83611ccd565b9150611fc482611f83565b602082019050919050565b60006020820190508181036000830152611fe881611fac565b9050919050565b50565b6000611fff600083611ccd565b915061200a82611fef565b600082019050919050565b6000602082019050818103600083015261202e81611ff2565b9050919050565b600061204082611a4a565b61204a8185611ccd565b935061205a818560208601611a66565b61206381611869565b840191505092915050565b600060208201905081810360008301526120888184612035565b905092915050565b7f566f7573206e6520706f7576657a20706173206e65207269656e2070726f706f60008201527f7365720000000000000000000000000000000000000000000000000000000000602082015250565b60006120ec602383611ccd565b91506120f782612090565b604082019050919050565b6000602082019050818103600083015261211b816120df565b9050919050565b600061212d826117fc565b9150612138836117fc565b92508282101561214b5761214a611ee3565b5b828203905092915050565b7f4f776e61626c653a2063616c6c6572206973206e6f7420746865206f776e6572600082015250565b600061218c602083611ccd565b915061219782612156565b602082019050919050565b600060208201905081810360008301526121bb8161217f565b9050919050565b7f43757272656e7420737461747573206973206e6f7420766f74696e672073657360008201527f73696f6e20656e64656400000000000000000000000000000000000000000000602082015250565b600061221e602a83611ccd565b9150612229826121c2565b604082019050919050565b6000602082019050818103600083015261224d81612211565b9050919050565b60006040820190506122696000830185611ba8565b6122766020830184611ba8565b9392505050565b7f566f74657320617265206e6f742074616c6c6965642079657400000000000000600082015250565b60006122b3601983611ccd565b91506122be8261227d565b602082019050919050565b600060208201905081810360008301526122e2816122a6565b9050919050565b7f4e487b7100000000000000000000000000000000000000000000000000000000600052602260045260246000fd5b6000600282049050600182168061233057607f821691505b602082108103612343576123426122e9565b5b50919050565b7f5265676973746572696e672070726f706f73616c732063616e7420626520737460008201527f6172746564206e6f770000000000000000000000000000000000000000000000602082015250565b60006123a5602983611ccd565b91506123b082612349565b604082019050919050565b600060208201905081810360008301526123d481612398565b9050919050565b7f5265676973746572696e672070726f706f73616c7320686176656e742073746160008201527f7274656420796574000000000000000000000000000000000000000000000000602082015250565b6000612437602883611ccd565b9150612442826123db565b604082019050919050565b600060208201905081810360008301526124668161242a565b9050919050565b7f5265676973746572696e672070726f706f73616c73207068617365206973206e60008201527f6f742066696e6973686564000000000000000000000000000000000000000000602082015250565b60006124c9602b83611ccd565b91506124d48261246d565b604082019050919050565b600060208201905081810360008301526124f8816124bc565b9050919050565b7f4f776e61626c653a206e6577206f776e657220697320746865207a65726f206160008201527f6464726573730000000000000000000000000000000000000000000000000000602082015250565b600061255b602683611ccd565b9150612566826124ff565b604082019050919050565b6000602082019050818103600083015261258a8161254e565b9050919050565b7f566f7465727320726567697374726174696f6e206973206e6f74206f70656e2060008201527f7965740000000000000000000000000000000000000000000000000000000000602082015250565b60006125ed602383611ccd565b91506125f882612591565b604082019050919050565b6000602082019050818103600083015261261c816125e0565b9050919050565b7f416c726561647920726567697374657265640000000000000000000000000000600082015250565b6000612659601283611ccd565b915061266482612623565b602082019050919050565b600060208201905081810360008301526126888161264c565b905091905056fea2646970667358221220826942616fbaf74ffc7562ace5d1b83d4587a57fc4bf1817c38b4d350d03894464736f6c634300080d0033",
  "immutableReferences": {},
  "source": "// SPDX-License-Identifier: MIT\n\npragma solidity 0.8.13;\nimport \"../node_modules/@openzeppelin/contracts/access/Ownable.sol\";\n\n/** @title A whitelisting voting contract\n    @notice This contract offer a voting system with: \n            - an admin, the contract owner\n            - voters, with registered address by the admin\n            Voters can first submit differents proposal about a topic.\n            In a second time, Voters can vote one time for their favorite proposal \n            The proposal with the most votes will be the adopted solution \n    @author Cyril C. */\ncontract Voting is Ownable {\n\n    // arrays for draw, uint for single\n    // uint[] winningProposalsID;\n    //Proposal[] winningProposals;\n\n    /** @notice Store the ID of the most voted proposal \n        @dev will be 0 before 'VoteTailling()' call */\n    uint public winningProposalID;\n    \n    /** @notice Define the structure of a Voter\n        @param isRegistered Define if the voter is in the whitelist \n        @dev is false by default, true when added to the whitelist with the function 'registerVoter()'\n        @param hasVoted Define if the voter has voted \n        @dev is false by default, true when the voter voted with 'vote()' \n        @param votedProposalId Store the ID of the voted proposal */\n    struct Voter {\n        bool isRegistered;\n        bool hasVoted;\n        uint votedProposalId;\n    }\n\n    /** @notice Define the structure of a Proposal\n        @param description Store the description the proposal \n        @param voteCount Store the number of voter who voted for the proposal */\n    struct Proposal {\n        string description;\n        uint voteCount;\n    }\n\n    /** @notice Define the states possibilities \n        @param RegisteringVoters State where the admin can add the address as a voter in whitelist \n        @param ProposalRegistrationStarted State where Voter can register a proposal \n        @param ProposalRegistrationEnded State where the admin lock the proposal register \n        @param VotingSessionStarted State where voter can vote for his favorite proposal \n        @param VotingSessionEnded State where admin end the voting session\n        @param VotesTallied State where the votes are counted and the winner is determined */\n    enum  WorkflowStatus {\n        RegisteringVoters,\n        ProposalsRegistrationStarted,\n        ProposalsRegistrationEnded,\n        VotingSessionStarted,\n        VotingSessionEnded,\n        VotesTallied\n    }\n\n    /** @notice Define the current state of the Voting */\n    WorkflowStatus public workflowStatus;\n    Proposal[] proposalsArray;\n\n    /** @notice Index a 'Voter' to his address */\n    mapping (address => Voter)  voters;\n\n    /** @notice emit when a new voter is registered by the admin\n        @param _voterAddress the address of the registered voter */\n    event VoterRegistered(address _voterAddress);\n    /** @notice emit when the status is changing\n        @param _previousStatus the status before the change\n        @param _newStatus the status after the change */\n    event WorkflowStatusChange(WorkflowStatus _previousStatus, WorkflowStatus _newStatus);\n    /** @notice emit when a new proposal is registered by a voter\n        @param _proposalId the ID of the new proposal */\n    event ProposalRegistered(uint _proposalId);\n    /** @notice emit when a voter is voting \n        @param _voter the address of the voter who voted\n        @param _proposalId the ID of the proposal which got voted */\n    event Voted (address _voter, uint _proposalId);\n\n\n    /** @notice verify if the sender address is registered as a voter */\n    modifier onlyVoters() {\n        require(voters[msg.sender].isRegistered, \"You're not a voter/owner\");\n        _;\n    }\n    \n    // on peut faire un modifier pour les tats\n\n    // ::::::::::::: GETTERS ::::::::::::: //\n\n    /** @notice Returns the voter object of the given address\n        @param _addr the address of the voter */\n    function getVoter(address _addr) external onlyVoters view returns (Voter memory) {\n        return voters[_addr];\n    }\n\n    /** @notice Returns the proposal object of the given ID\n        @param _id the id of the proposal */\n    function getOneProposal(uint _id) external view returns (Proposal memory) {\n        return proposalsArray[_id];\n    }\n\n    /**\n    function getWinners() external view returns (Proposal[] memory) {\n        require(workflowStatus == WorkflowStatus.VotesTallied, 'Votes are not tallied yet');\n        return winningProposals;\n    }\n    */\n\n    /** @notice Returns the informations about proposal winner  */\n    function getWinner() external view returns (Proposal memory) {\n        require(workflowStatus == WorkflowStatus.VotesTallied, 'Votes are not tallied yet');\n        return proposalsArray[winningProposalID];\n    }\n \n    // ::::::::::::: REGISTRATION ::::::::::::: // \n\n    /** @notice Admin can register a voter by calling this function\n        @param _addr the address of the whitelisted voter */\n    function addVoter(address _addr) public onlyOwner {\n        require(workflowStatus == WorkflowStatus.RegisteringVoters, 'Voters registration is not open yet');\n        require(voters[_addr].isRegistered != true, 'Already registered');\n    \n        voters[_addr].isRegistered = true;\n        emit VoterRegistered(_addr);\n    }\n \n    /* facultatif\n     * function deleteVoter(address _addr) external onlyOwner {\n     *   require(workflowStatus == WorkflowStatus.RegisteringVoters, 'Voters registration is not open yet');\n     *   require(voters[_addr].isRegistered == true, 'Not registered.');\n     *   voters[_addr].isRegistered = false;\n     *  emit VoterRegistered(_addr);\n    }*/\n\n    // ::::::::::::: PROPOSAL ::::::::::::: // \n\n    /** @notice Voter can register a new proposal\n        @param _desc the description of the proposal */\n    function addProposal(string memory _desc) external onlyVoters {\n        require(workflowStatus == WorkflowStatus.ProposalsRegistrationStarted, 'Proposals are not allowed yet');\n        require(keccak256(abi.encode(_desc)) != keccak256(abi.encode(\"\")), 'Vous ne pouvez pas ne rien proposer'); // facultatif\n        // voir que desc est different des autres\n\n        Proposal memory proposal;\n        proposal.description = _desc;\n        proposalsArray.push(proposal);\n        emit ProposalRegistered(proposalsArray.length-1);\n    }\n\n    // ::::::::::::: VOTE ::::::::::::: //\n\n    /** @notice Voter can deposit his vote on a proposal \n        @param _id the ID of the proposal */\n    function setVote( uint _id) external onlyVoters {\n        require(workflowStatus == WorkflowStatus.VotingSessionStarted, 'Voting session havent started yet');\n        require(voters[msg.sender].hasVoted != true, 'You have already voted');\n        require(_id < proposalsArray.length, 'Proposal not found'); // pas oblig, et pas besoin du >0 car uint\n\n        voters[msg.sender].votedProposalId = _id;\n        voters[msg.sender].hasVoted = true;\n        proposalsArray[_id].voteCount++;\n\n        emit Voted(msg.sender, _id);\n    }\n\n    // ::::::::::::: STATE ::::::::::::: //\n\n /* on pourrait factoriser tout a: par exemple:\n    *\n    *  modifier checkWorkflowStatus(uint  _num) {\n    *    require (workflowStatus=WorkflowStatus(uint(_num)-1, \"bad workflowstatus\");\n    *    require (num != 5, \"il faut lancer tally votes\");\n    *    _;\n    *  }\n    *\n    *  function setWorkflowStatus(WorkflowStatus _num) public checkWorkflowStatus( _num) onlyOwner {\n    *    WorkflowStatus old = workflowStatus;\n    *    workflowStatus = WorkflowStatus(_num);\n    *    emit WorkflowStatusChange(old, workflowStatus);\n    *   } \n    *\n    *  ou plus simplement:\n    *  function nextWorkflowStatus() onlyOwner{\n    *    require (uint(workflowStatus)!=4, \"il faut lancer tallyvotes\");\n    *    WorkflowStatus old = workflowStatus;\n    *    workflowStatus= WorkflowStatus(uint (workflowstatus) + 1);\n    *    emit WorkflowStatusChange(old, workflowStatus);\n    *  }\n    *\n    */ \n\n    /** @notice end the whitelisting period of voters by the admin and start the registering proposals period */\n    function startProposalsRegistering() external onlyOwner {\n        require(workflowStatus == WorkflowStatus.RegisteringVoters, 'Registering proposals cant be started now');\n        workflowStatus = WorkflowStatus.ProposalsRegistrationStarted;\n        emit WorkflowStatusChange(WorkflowStatus.RegisteringVoters, WorkflowStatus.ProposalsRegistrationStarted);\n    }\n\n    /** @notice end the proposal register period by the admin */\n    function endProposalsRegistering() external onlyOwner {\n        require(workflowStatus == WorkflowStatus.ProposalsRegistrationStarted, 'Registering proposals havent started yet');\n        workflowStatus = WorkflowStatus.ProposalsRegistrationEnded;\n        emit WorkflowStatusChange(WorkflowStatus.ProposalsRegistrationStarted, WorkflowStatus.ProposalsRegistrationEnded);\n    }\n\n    /** @notice start the vote period by the admin*/\n    function startVotingSession() external onlyOwner {\n        require(workflowStatus == WorkflowStatus.ProposalsRegistrationEnded, 'Registering proposals phase is not finished');\n        workflowStatus = WorkflowStatus.VotingSessionStarted;\n        emit WorkflowStatusChange(WorkflowStatus.ProposalsRegistrationEnded, WorkflowStatus.VotingSessionStarted);\n    }\n\n    /** @notice end the vote period by the admin */\n    function endVotingSession() external onlyOwner {\n        require(workflowStatus == WorkflowStatus.VotingSessionStarted, 'Voting session havent started yet');\n        workflowStatus = WorkflowStatus.VotingSessionEnded;\n        emit WorkflowStatusChange(WorkflowStatus.VotingSessionStarted, WorkflowStatus.VotingSessionEnded);\n    }\n\n    /**\n    function tallyVotesDraw() external onlyOwner {\n       require(workflowStatus == WorkflowStatus.VotingSessionEnded, \"Current status is not voting session ended\");\n        uint highestCount;\n        uint[5]memory winners; // egalite entre 5 personnes max\n        uint nbWinners;\n        for (uint i = 0; i < proposalsArray.length; i++) {\n            if (proposalsArray[i].voteCount == highestCount) {\n                winners[nbWinners]=i;\n                nbWinners++;\n            }\n            if (proposalsArray[i].voteCount > highestCount) {\n                delete winners;\n                winners[0]= i;\n                highestCount = proposalsArray[i].voteCount;\n                nbWinners=1;\n            }\n        }\n        for(uint j=0;j<nbWinners;j++){\n            winningProposalsID.push(winners[j]);\n            winningProposals.push(proposalsArray[winners[j]]);\n        }\n        workflowStatus = WorkflowStatus.VotesTallied;\n        emit WorkflowStatusChange(WorkflowStatus.VotingSessionEnded, WorkflowStatus.VotesTallied);\n    }\n    */\n\n    /** @notice trigger by the admin the vote calculation and define the winner proposal */\n    function tallyVotes() external onlyOwner {\n        require(workflowStatus == WorkflowStatus.VotingSessionEnded, \"Current status is not voting session ended\");\n        uint _winningProposalId;\n        for (uint256 p = 0; p < proposalsArray.length; p++) {\n            if (proposalsArray[p].voteCount > proposalsArray[_winningProposalId].voteCount) {\n                _winningProposalId = p;\n            }\n        }\n\n        winningProposalID = _winningProposalId;\n\n        workflowStatus = WorkflowStatus.VotesTallied;\n        emit WorkflowStatusChange(WorkflowStatus.VotingSessionEnded, WorkflowStatus.VotesTallied);\n    }\n}",
  "sourcePath": "/home/cyril/dev/Kovan/voteDapp/contracts/Voting.sol",
  "compiler": {
    "name": "solc",
    "version": "0.8.13+commit.abaa5c0e.Emscripten.clang"
  },
  "schemaVersion": "3.4.6",
  "updatedAt": "2022-04-26T01:07:20.357Z",
  "networkType": "ethereum",
  "devdoc": {
    "author": "Cyril C. ",
    "events": {
      "ProposalRegistered(uint256)": {
        "params": {
          "_proposalId": "the ID of the new proposal "
        }
      },
      "Voted(address,uint256)": {
        "params": {
          "_proposalId": "the ID of the proposal which got voted ",
          "_voter": "the address of the voter who voted"
        }
      },
      "VoterRegistered(address)": {
        "params": {
          "_voterAddress": "the address of the registered voter "
        }
      },
      "WorkflowStatusChange(uint8,uint8)": {
        "params": {
          "_newStatus": "the status after the change ",
          "_previousStatus": "the status before the change"
        }
      }
    },
    "kind": "dev",
    "methods": {
      "addProposal(string)": {
        "params": {
          "_desc": "the description of the proposal "
        }
      },
      "addVoter(address)": {
        "params": {
          "_addr": "the address of the whitelisted voter "
        }
      },
      "getOneProposal(uint256)": {
        "params": {
          "_id": "the id of the proposal "
        }
      },
      "getVoter(address)": {
        "params": {
          "_addr": "the address of the voter "
        }
      },
      "owner()": {
        "details": "Returns the address of the current owner."
      },
      "renounceOwnership()": {
        "details": "Leaves the contract without owner. It will not be possible to call `onlyOwner` functions anymore. Can only be called by the current owner. NOTE: Renouncing ownership will leave the contract without an owner, thereby removing any functionality that is only available to the owner."
      },
      "setVote(uint256)": {
        "params": {
          "_id": "the ID of the proposal "
        }
      },
      "transferOwnership(address)": {
        "details": "Transfers ownership of the contract to a new account (`newOwner`). Can only be called by the current owner."
      }
    },
    "stateVariables": {
      "winningProposalID": {
        "details": "will be 0 before 'VoteTailling()' call "
      }
    },
    "title": "A whitelisting voting contract",
    "version": 1
  },
  "userdoc": {
    "events": {
      "ProposalRegistered(uint256)": {
        "notice": "emit when a new proposal is registered by a voter"
      },
      "Voted(address,uint256)": {
        "notice": "emit when a voter is voting "
      },
      "VoterRegistered(address)": {
        "notice": "emit when a new voter is registered by the admin"
      },
      "WorkflowStatusChange(uint8,uint8)": {
        "notice": "emit when the status is changing"
      }
    },
    "kind": "user",
    "methods": {
      "addProposal(string)": {
        "notice": "Voter can register a new proposal"
      },
      "addVoter(address)": {
        "notice": "Admin can register a voter by calling this function"
      },
      "endProposalsRegistering()": {
        "notice": "end the proposal register period by the admin "
      },
      "endVotingSession()": {
        "notice": "end the vote period by the admin "
      },
      "getOneProposal(uint256)": {
        "notice": "Returns the proposal object of the given ID"
      },
      "getVoter(address)": {
        "notice": "Returns the voter object of the given address"
      },
      "getWinner()": {
        "notice": "Returns the informations about proposal winner  "
      },
      "setVote(uint256)": {
        "notice": "Voter can deposit his vote on a proposal "
      },
      "startProposalsRegistering()": {
        "notice": "end the whitelisting period of voters by the admin and start the registering proposals period "
      },
      "startVotingSession()": {
        "notice": "start the vote period by the admin"
      },
      "tallyVotes()": {
        "notice": "trigger by the admin the vote calculation and define the winner proposal "
      },
      "winningProposalID()": {
        "notice": "Store the ID of the most voted proposal "
      },
      "workflowStatus()": {
        "notice": "Define the current state of the Voting "
      }
    },
    "notice": "This contract offer a voting system with:  - an admin, the contract owner - voters, with registered address by the admin Voters can first submit differents proposal about a topic. In a second time, Voters can vote one time for their favorite proposal  The proposal with the most votes will be the adopted solution ",
    "version": 1
  }
}